:4000000000800020110000009D0900009D09000008B5044B1A6803F53F5302331A6000F0C5FC00BFFA46004010B5054C237833B9044B13B10448AFF300800123237010BD6A
:40004000A082FF1F00000000B8200000084B10B51BB108490848AFF300800848036803B910BD074B002BFBD0BDE81040184700BF00000000A482FF1FB8200000C880FF1FA0
:400080000000000008B5002000F0DEFE08BD00BF684620F007018D4619B572B6EFF311841E4B1B68DBB20F2B10D9103B23F0030202F1604202F564421168DB0003F018037A
:4000C000E0229A400A4022FA03F306E00F2B03D1134B1B681B0E00E0002383F31188114A136801331360012B01D101F031FE62B6FFF7C8FF72B684F3118801F09FF8094A35
:400100001368013B13601BB901F02BFE01F0EFFD62B6BDE819408546704700BF04ED00E020ED00E02083FF1F08B562B645F6BF52054B1A60054A136843F002031360002074
:4001400001F078F9FBE700BF14E000E010E000E008B500F0EBF901F00BFB01F023FB01F051FB032000F022FA00F036FA18B10F4801F062FB02E00E4801F05EFB01F0BEF91D
:400180000C4A136843F00503136001221146002000F0DCFC002000F065FC012000F062FC032000F05FFC01F08BF908BDBC200000D820000010E000E008B500F0FDF9FCE7AC
:4001C00008B501F04BFB012802D1002001F0EAF808BD00BF684620F007018D4619B572B6EFF311841E4B1B68DBB20F2B10D9103B23F0030202F1604202F564421168DB000D
:4002000003F01803E0229A400A4022FA03F306E00F2B03D1134B1B681B0E00E0002383F31188114A136801331360012B01D101F08FFD62B6FFF7C4FF72B684F3118800F077
:40024000FDFF094A1368013B13601BB901F089FD01F04DFD62B6BDE819408546704700BF04ED00E020ED00E02083FF1F38B51A4B1B7813B94FF0010101E04FF00001174B34
:400280009A68197000215960022159705569936873B13DB90CE0996855F8240000F07AFE013400E000240D4B9B681A699442F2D30A4B5B78022B04D1084883685B6898479B
:4002C00001E04FF0FF3010B1054801F0B5FA032000F08EF938BD00BFD880FF1FF080FF1FF420000030B583B0294B1B88ADF80430ADF800305BB2002B02DD5900012200E04B
:400300000022002B02DA4FF000010122D2B1214B9A681970002159600221597055699368002B30D03DB92EE0996855F8240000F031FE013400E00024164B9B681A69944282
:40034000F2D320E0134B9A68197000215960022159705569936873B13DB90CE0996855F8240000F017FE013400E00024094B9B681A699442F2D3074B5B68013313F1011FB8
:4003800001D8044A5360012000F032F903B030BDCC80FF1FD880FF1F38B5194B1A785B68092B01D94FF00002164B99681A7000225A6002225A704D698B6873B13DB90CE04D
:4003C000996855F8240000F0E5FD013400E000240C4B9B681A699442F2D30A4B5B78022B04D1084883685B68984701E04FF0FF3010B1054801F020FA022000F0F9F838BDA1
:40040000D880FF1FE480FF1F2021000070B582B0264B9B681A68002A3DD0244A128802A820F8082D1B6898470546E8B9BDF80010ADF804101D4B9A68198000215960022134
:400440009970566993683BB33EB925E0996856F8240000F09FFD013400E00024134B9B681A699442F2D317E0104B03229A709B68DE69DB6883B13EB90EE0D96856F824003E
:4004800000F088FD013400E00024084B9B689A699442F2D300E0002515B1054801F0CCF9002000F0A5F802B070BD00BFCC80FF1F4C21000000B583B000230193012000F0FA
:4004C000E9FD01A9012000F045FD019800F014FD019A0121014800F0AFF8EFE78021000010B582B000240194062000F0D3FD01A9002000F02FFD019800F0FEFC019B13F0CD
:40050000040F09D022460221064800F07DF8013414F5807F00D90024019A0121024800F08BF8E1E78C2100009C21000008B501F08DF801F09FF8002008BD00BF70B50646DB
:400540000D46002001F09AF8002001F0A3F884B2012001F09FF880B2D4F5006400D50F3444F307143470D0F5006000D50F3040F307102870002070BD48B938B505460C469A
:40058000084601F003F9034B5C55002038BD6FF013007047BC82FF1F08B5034B13F8100001F09CF8002008BDA821000008B5002101F052FB002008BD08B5064B1B6803F089
:4005C0000F030F2B04D101F067FB0022014B1A60002008BDC082FF1F044B1B7803F0080303F0FF0003B10120704700BFC080FF1F012303FA00F0034A13681843106000201B
:40060000704700BFC082FF1FF8B506460F46154600240DE006EBC4039A88B5FBF2F302FB13531BB956F83430002098470134A4B2BC42EFD30020F8BDF8B505460E4617460A
:40064000002409E005EBC4035868384202D055F8343098470134A4B2B442F3D30020F8BD08B50378012B07D101210020FFF784FF0020FFF791FF03E000210846FFF77CFF9E
:40068000002008BD08B5007810B101F027F806E00020FFF781FF00210846FFF76DFF002008BD00BF10B582B004460DF106010DF10700FFF743FF9DF9073023709DF80630B0
:4006C0006370002002B010BDFEE700BFF0B40022174611E050F82760F3B226F0FF0608E001EB420511F812406D78A5550132013BDBB2002BF4D10137252FEBD9F0BC70474D
:4007000008B50A46002101F0CEFC08BD38B50222274B1A80182327490B700E200231088002310B70192502310D8002310B70224B1A7008224FF040231A70032103F50073A9
:4007400019701E4B1B78DBB21D490B701D4B1A8041F25122023B1A8000240CE01A4B1B7803F0010343EA440404F003044FF4F07001F076FB013D0DB1032CEFD115B90320B7
:40078000FFF7A2FF114B4FF480721A8007221A7000220F490A704820023108701A700222033B1A700B4A137843F00703137038BD80400040824000400043004008010049DB
:4007C000A146004022420040254200400440004006400040A2430040F8B5164B1B78DBB2154E3478E4B2154F3D78EDB203F00701134A11701B090132137044F0030333703D
:4008000045F003033B7003220E4B1A7040230E4A13700232137030220C4B1A70202203331A700A2001F00EFA3D7034704422084B1A70F8BDCF010049F8460040F94600401E
:400840006E5800400D51004001590040205B00407658004008B501F01BFC08BD38B572B63A4A137843F00403137000240CE0384D630019194A0011462A44084691882858E6
:40088000FFF73EFF0134E4B2072CF0D900240BE02F49A3001819420088188022416B006BFFF7D8FF0134E4B2002CF1D029494FF09040FFF70BFF04212748FFF721FF042272
:4008C00026492748FFF7C6FF264A137843F0020313701032137843F002031370224C237843F040032370A2F58632513A137843F01003137008221D491D48FFF7ABFF0A2220
:400900001C491D48FFF7A6FF08221C491C48FFF7A1FF08221B491C48FFF79CFF1B4A137843F0080313701A4D61232B70FFF7EEFE81232B700122174B1A70FFF74DFF0E226D
:4009400021461548FFF786FF38BD00BFE8460040502400009800004800760040040800480876004003500140A0430040E007004802510040E8070048C0510040F4070048B6
:4009800012510040FC07004822510040224300400048004004000840B043004008B501F04BFB03680C2B00D1FEE7FEE708B5104E104D16E029686B68AC68002204E051F884
:4009C000040B43F8040B0432A242F8D1E868002203E0002143F8041B04328242F9D11035013E002EE6D101F02DFBFFF79DFBFEE701000000DC26000008B5114A114B1A6041
:400A0000114A136843F40073136000230AE0032B03D80E4A52F8231000E00D490D4A42F8231001332F2BF2D90B4B1A780B4B1A70084A0B4B1A60FFF711FF01F021F808BDC6
:400A40000004FA050CED00E014ED00E0000000009D0900000080FF1FBC760040C080FF1F08ED00E038B5EFF3108572B603284ED82D4B53F82030002B4BD02B4A013B42F8AF
:400A800020302A4B53F82030032B07D10222274B43F820200022264B43F8202000F03EFC244B1B68002B36D1234B1C6800F014FCB0F1FF3F31D0214B53F82020204B1B68AC
:400AC0009A422CD9B4F1FF3F03D00221174A42F824101C4A52F820201343194A13600022124B43F8202000F0B3FB174B53F820304BB10024144B43F8204040F0004001F041
:400B000039F920460CE001F035F9002008E0032006E0042004E0002002E0002000E0002085F3108838BD00BF3881FF1FDC81FF1FE482FF1F2083FF1FC881FF1F08260000E7
:400B4000FC82FF1FEC250000C482FF1FF8B5EFF3108472B628BB00EB4005AB00184DEB5803EB4306B500174E75598D421BD34AB103EB43039E00134B1E44B3689A4214D36C
:400B8000954214D3A9B103010F4DEB589BB90301EE180127EF507260013900F087F800200AE0032008E0082006E0082004E0082002E0082000E0072084F31088F8BD00BF4F
:400BC000AC250000C02500004883FF1F18B108B5C368984708BD704708B508B1406800E00020032816D80C4B53F8203093B10A4A013B42F82030094B53F82030032B07D1CE
:400C00000222064B43F820200022054B43F8202000F084FB08BD00BF3881FF1FDC81FF1FE482FF1F18B1034640689B6801E00023184603281DD80F4A52F82020CAB10E4A19
:400C400052F82010032914D010B50C4C54F820201A4344F820200A4A52F82020134207D0012905D10222044B43F8202000F056FB10BD7047CC250000DC81FF1FE482FF1FBB
:400C8000D482FF1F80B108B50378012B06D013B1032B06D008BDFFF79FFF08BDFFF7C2FF08BDFFF793FF08BD704700BF30B400EB40029300214AD258214B03EBC2035C6814
:400CC000B4F1FF3F04D11E4B03EBC20250602DE01C4B03EB04139B6899420AD2184D05EBC2025060174A02EB04125B1A93601DE01C46144B03EB04139A68891ADB68B3F15A
:400D0000FF3F05D00F4A02EB031292689142EFD2B3F1FF3F05D00B4A02EB031295686D1A9560084A02EB0414E0601C46054B03EB00108160C46030BC704700BFAC250000B1
:400D40000081FF1F4883FF1F38B5394A02EBC0035C6852F83030013342F8303000EB40018A0034498A58934203D90022304B43F83020B4F1FF3F59D02F4B03EB04139B6813
:400D8000002B4ED1214600E019462B4B03EB0113DB68B3F1FF3F05D0274A02EB03129268002AF1D0244A02EB01114FF0FF32CA601F4A02EBC0004360B3F1FF3F07D01E4A98
:400DC00002EB03139A68013A9A6000E02C4604EB44029300194A13441B7A7BB904EB44029300164A13445A68154B53F8223003EB83039A0013481044FFF744FF0E4B03EBA1
:400E00000413DD68596821B101392046FFF74EFF03E024010022084B1A51B5F1FF3FD5D138BD054A02EB0414013BA36038BD00BF0081FF1FC02500004883FF1FAC250000F4
:400E4000BC2500009825000038B5EFF3108572B6002838D1FFF778FF204B1B68002B34D11F4B1C6800F038FAB0F1FF3F2FD01D4B53F820201C4B1B689A422AD9B4F1FF3FFF
:400E800003D00221194A42F82410194A52F820201343154A13600022144B43F8202000F0D7F9144B53F820304BB10024114B43F8204040F0004000F05DFF20460AE000F08D
:400EC00059FF002006E0032004E0002002E0002000E0002085F3108838BD00BF2083FF1FC881FF1F08260000FC82FF1FDC81FF1FEC250000C482FF1FEFF3108372B6114ACD
:400F00001168114A126882B9B1F1FF3F0FD00F4A52F821206AB110B40D4C54F8212022EA000044F82100002007E0022002E0022000E0012083F31088704783F3108810BC8A
:400F4000704700BFC881FF1F2083FF1FCC250000E482FF1F03280FD80B4B53F820306BB10A4B53F82030032B0AD059B1084B53F820300B600020704703207047012070475B
:400F8000072070470E207047CC250000DC81FF1FE482FF1F38B5EFF3108472B6032853D8324B53F82030002B50D0314B53F82030032B4DD02F4D55F820200A4345F8202005
:400FC0002D4A52F82020114244D0012B44D10222274B43F8202000F0A1F9284B1B68002B3CD1274B1D6800F077F9B0F1FF3F37D0244B53F82020244B1B689A4232D9B5F1C9
:40100000FF3F03D002211A4A42F825101F4A52F8202013431C4A13600022154B43F8202000F016F91A4B53F820304BB10025184B43F8205040F0004000F09CFE284612E002
:4010400000F098FE00200EE003200CE001200AE0072008E0002006E0002004E0002002E0002000E0002084F3108838BDCC250000DC81FF1FE482FF1FD482FF1F2083FF1F5E
:40108000C881FF1F08260000FC82FF1FEC250000C482FF1F38B5EFF3108472B6364B1D68364B1B68002B5DD1B5F1FF3F5CD0344B53F82530002B59D0324B53F825300342B7
:4010C00056D1314B43F825000122304B43F825202F4B53F825002F490B6823EA00030B602D4B43F825202D4B53F82520224B1A6000F0F2F8B0F1FF3F06D0294B53F820200A
:40110000244B1B689A420DD81B4B1868B0F1FF3F03D000221D4B43F8202040F0004000F029FE1AE00021194A42F82010184A52F820201343174A136000F08AF8164B53F8BC
:40114000203043B10022144B43F8202040F0004000F010FE01E000F00DFE00200A4B43F8250006E0022004E0022002E0012000E0002084F3108838BDC881FF1F2083FF1FD3
:40118000CC250000E482FF1FD482FF1FDC81FF1FEC250000FC82FF1FC482FF1FCC81FF1F0826000008B500F053F8084B53F8203043B10022054B43F8202040F00040044B9B
:4011C000186008BD024B186008BD00BFC482FF1F2483FF1F10B500F07FF8124B1B68B0F1FF3F1AD0104A52F82010104A1268914213D9B3F1FF3F03D002240D4941F8234037
:4012000000210B4B43F820100A4B53F820301A43064B1A60FFF7C6FF10BD43F00043064A136010BDC881FF1F08260000FC82FF1FDC81FF1FEC2500002483FF1F034B1B68D3
:4012400013B10022014B1A60704700BF1483FF1FF0B4184B19880B0A174AD356B3F1FF3F01D1535601E008335BB2144D55F82320134850F82200134E56F8224045F8234063
:40128000114D2F6846F822702A60B4F1FF3F09D10E4A42F82340012202FA03F321EA0301044B19800A4B19680A4A42F820101860F0BC7047F882FF1F8C2400008881FF1F43
:4012C0002883FF1F1881FF1FF482FF1F4881FF1FC881FF1FCC81FF1F0C4B1A88130A0C49CB56B3F1FF3F01D18B5601E008335BB2B3F1FF3F06D0074A52F82320064B53F8A5
:40130000220070474FF0FF30704700BFF882FF1F8C2400008881FF1F2883FF1F30B4144B53F82020134C2368134951F823502560124C44F823004FF0FF3441F8234010493F
:4013400051F82210A1420AD10E4951F820400E480188214301800D4941F8223002E0064840F82130064941F8223030BC704700BF2881FF1FF482FF1F1881FF1F2883FF1FBF
:401380004881FF1F08260000F882FF1F8881FF1F0022014B1A60FEE71C83FF1F08B5FFF7F7FF00BF08B572B6FFF7F8FF10B150F8210070474FF0FF30704700BF0122014B61
:4013C0001A60FEE71C83FF1F70B50546124B53F8306000241CE0104B03EBC50321465868FFF7E4FF0D4A52F82030013B42F820300B4B53F82030032B07D10222084B43F898
:4014000020200022074B43F82020FFF787FF0134B442E0D370BD00BF8C2500003881FF1FDC81FF1FE482FF1F18B908B5FFF7CCFF08BD7047194B1A4ADA621A4A9A631A4A1C
:40144000DA63EFF3108272B6184B1B6813BB10B5044600F053F8164B1C600122134B1A602046FFF7E1FFFFF737FFB0F1FF3F0ED0104B53F82030104A11680B4313600022EC
:401480000E4B43F82020FFF7E3FE00F073FC62B6FFF794FF82F31088072070470080FF1F351D0000F91C0000910000001C83FF1F58C3FF1FEC250000FC82FF1FDC81FF1FE2
:4014C00008B5EFF3108272B6094B1968094B1B6833B94FF0FF30084B43F82100002000E0022010B9084600F09EFC82F3108808BDC881FF1F2083FF1F0881FF1F38B50D4B35
:401500001D68EFF3108472B600F0E4FB0A4A136843F07F431360094B2B650221042000F0C1FB074A136843F01003136084F3108838BD00BF08ED00E020ED00E0D5010000CB
:4015400000E100E010B541F6FF734FF480420121022000F03DFA084C207041F6FF731A460121042000F052FA6070044800F06CFA002000F06FFA10BD0483FF1FB116000039
:4015800070B52C4C207800F0B1FA607800F0AEFA294B1B78FF2B03D100F016FB264B1870254D287806230246042100F027FB214E341DA4B2224645F6A031287800F032FBEB
:4015C0002978307800F0D2FA6B78FF2B02D100F0FBFA6870184D687807230246042100F00DFB164A92B22146687800F01BFB114C6978607800F0BAFA0121207800F05AFACC
:401600000121607800F056FA00F032FC0C4A137843F02003137000F02FFC0A4B1A7842F001021A701A7842F002021A700122064B1A6070BD0483FF1F1882FF1F5CC5FF1FCE
:401640009A6400407B64004080E200E008B5074B9B6823B9FFF776FF0122044B9A6000F0A1F9FFF78DFF024B1B7808BD0483FF1F6865004008B500F0A3F908BD044B1B78B3
:4016800003F0FF020BB90028F8D01046704700BF68650040C0F10100034B33F91030034A1088181A00B270475CC5FF1F60C5FF1F704700BF024A137843F0800313707047FE
:4016C00077640040014B1870704700BF07640040014B1870704700BF47640040014B1870704700BF27640040014B1870704700BF87640040014B1878704700BF67640040BE
:40170000014B1878704700BF5764004008B501E0FFF7F6FFFFF7EEFF10F0100FF8D108BD10B5114A137803F0C00343F0090313700E4C237843F001032370FF20FFF7C2FF8B
:40174000FF20FFF7C5FF7F20FFF7C8FF0020FFF7CBFF00F08DFB237843F01003237000F08BFBFFF7D3FF10BD776400409764004008B5054B1B7823B9FFF7D2FF0122024B54
:401780001A70FFF797FF08BD1083FF1F044A137803F0BF03800100F04000184310707047005100407222084B1A702022013B1A700622A3F25B131A70472210331A700022B5
:4017C0004F331A70704700BF8A65004010B500F04FFB04460A4A137843F020031370013A137843F010031370FC3A137843F01003137000F037F9204600F03EFB10BD00BFE3
:401800009A65004008B5054B1B7823B9FFF7CAFF0122024B1A70FFF7D9FF08BD1183FF1F034B1B7813F0040FFAD1024B187070476D6400404D64004038B5074B1B782BB9E9
:4018400038BDFFF7EDFF0134A4B201E005460024285D0028F5D138BD1183FF1F024B1878C0F3C000704700BF0151004008B50A280FD00C2802D0082806D102E04FF4805272
:4018800009E04FF4807206E0002000F0D9F9002201E04FF480620021094B198042F2107303FB02F303F6C413064A82FB0302DB17C3EBE223044A1360044B198008BD00BFEE
:4018C00062C5FF1FAD8BDB6868C5FF1F60C5FF1F10B500F0CDFA0446184A137843F0010313701032137843F00103137002F5AA520832137843F0030313701822104B1A7013
:40190000013B1A7842F040021A701A7802F0FC021A70C822053B1A700222A3F597530C3B1A70084A137843F0080313700A2000F089F9204600F0A0FA10BD00BFAB430040C0
:4019400006590040275B004010B504460A280DD00C2802D0082804D101E0C22207E0422205E0002000F06CF9C22200E08222034B1A702046FFF77AFF10BD00BF0259004037
:4019800008B5064A137843F0060313700C20FFF7DBFF0022024B1A8008BD00BF0159004064C5FF1F08B5054B1B7823B9FFF7E8FF0122024B1A70FFF78BFF08BD1383FF1F1A
:4019C000024A137843F001031370704700590040F0B583B016461F460B4C012525700023019300932B460A460146284600F0CAF83A463146207800F09FF80221207800F028
:401A000089F8207803B0F0BD1A82FF1FF0B583B016461F460B4D00242C700194009423460A460146204600F0ADF83A463146287800F082F80221287800F06CF8287803B033
:401A4000F0BD00BF1B82FF1F014B1B681864704708ED00E04001C0B2014B1870704700BF00E400E0054A137843F0040313701032137843F004031370704700BFA2430040EB
:401A80000B4A7F2313708021517007E0DA0002F1804202F5F042013BDBB21370002BF5D1DB0003F1804303F5F04300221A7070471C82FF1F172815D831B103010A495A5C77
:401AC00042F020025A5405E0030107495A5C02F0DF025A540001044A835C43F00103835400207047012070471070004017280CD80001074BC1180A7942F004020A71C25C26
:401B000042F00102C254002070470120704700BF1070004017280BD80001064A835C03F0F103490001F00E011943815400207047012070471070004041F6FF73994201D1B4
:401B40004FF4005141F6FF739A4201D14FF40052172808D8C00000F1804000F5EC408180C280002070470120704700BF172805D8034B03EB001041720020704701207047B9
:401B80001070004017281BD810B4C00000F1804404F5EC44D201D2B201F07F01114321709DF804201201D2B203F00F03134363709DF8083003F00F03A3700020E07001E070
:401BC0000120704710BC704710B500F051F90A4B5B78182B0BD9084A1478013B5370E30003F1804303F5F0431B78137000E0FF2400F042F9204610BD1C82FF1F10F0800FD8
:401C00000CD111F4704F0BD1C00000F1804000F5F04001808270C37000207047012070470120704710F0800F08D1C00000F1804000F5F0408180C280002070470120704774
:401C400001BE704708B5034B1B7A00FB03F000F007F908BD2482FF1F0E4B1A7802F0FC0200F00300104318701A7842F080021A701A7802F07F021A7049011A7801F06001B1
:401C800002F09F02114319701A7842F010021A70704700BF834300400122014B1A7070478443004038B504460D46072902D90020FFF7C6FF1F2C02D90020FFF7C1FF04F0C1
:401CC0001F0000F1604000F564406D01EDB2057038BD00BF18484FF47F0102680A43026016486FF07F4102680A400260704714484FF080510160704772B611484FF000613A
:401D00000160FFF767FA0F48006800F0D5F858B10C4800684FF080730B4A0C490FB40FB46FF00600004700BF6FF0060062B6004762B600DF08B0704720ED00E01CED00E0DD
:401D400004ED00E02483FF1F751D0000311D0000EFF30880054908600548006880F3088870470248006880F3088870473482FF1F0882FF1F411C8900154A11440968154A0C
:401D8000136899421AD0F0B444464D4656465F46F0B400B5104C9B002344EFF308851D60116089002144096881F3088802BC8E46F0BCA046A946B246BB46F0BC002806DBA9
:401DC00000B500F06DF802BC8E46FFF7D3BF7047382600000083FF1F0C82FF1FF0B444464D4656465F46F0B400B5EFF3038308B48000174901440968164A0244EFF3088335
:401E0000136088471448804704BC4FF08070024382F3038801BC8646F0BCA046A946B246BB46F0BC704780000A4901440A6882F3088804BC4FF08070024382F3038808BC1C
:401E40009E46F0BCA046A946B246BB46F0BC7047182600003883FF1F811E0000000000000230800803D000BF01380046FCD17047EFF3108072B6704780F31088704700BFCA
:401E800008B572B6014B1868FFF7CDFFC881FF1F08B5024B1868FFF7A1FF08BDC881FF1F08B562B6FFF7F4FF72B600F041F8014B186808BD2483FF1F00280BDA20F000403A
:401EC0000130054B53F82000044B1B68181A18BF0120704701207047382600000083FF1F054B53F82020054B53F820309A4201D101207047002070473881FF1FDC25000071
:401F000008B5FFF7A5F9084B53F8203043B10022054B43F8202040F00040044B186008BD024B186008BD00BFC482FF1F2483FF1F38B5364B1C680022354B1A60354A52F83C
:401F40002430013342F82430334B53F824502046FFF7C6FF012801D0A54204D103222F4B43F8242003E002222C4B43F824202C4B53F824102B4A136823EA010313602A4B3D
:401F800053F82440214B1C60B5F1FF3F0FD0234B53F82530032B07D10222204B43F825200022224B43F825202846FFF7B7F9FFF793F9B0F1FF3F0BD1B4F1FF3F03D000226C
:401FC000164B43F8242044F00044194B1C6038BD184B53F82020134B1B689A4208D800220E4B43F8242044F00044114B1C6038BD00210A4A42F82010094A52F820201343D8
:40200000084A1360FFF77CFF38BD00BFC881FF1F1483FF1F3881FF1F0881FF1FDC81FF1FEC250000FC82FF1FCC81FF1FE482FF1F2483FF1F08260000014B1868704700BFD0
:402040009882FF1F0E4B70B51E460E4C0025E41AA410A54204D056F8253098470135F8E700F02AFB084B094C1E46E41AA4100025A54204D056F8253098470135F8E770BD4C
:40208000C4260000C4260000C4260000CC26000010B5431E0A44914204D011F8014B03F8014FF8E710BD03460244934202D003F8011BFAE770470000000000005265736595
:4020C00074206279205761746368446F672054696D65720D0A000000526573657420627920506F7765724F6E2052657365740D0A000000004572726F722075706461746935
:402100006E6720746865206272616B65207369676E616C206472697665720D0A000000004572726F72207570646174696E672074686520656E67696E65207369676E616CC8
:40214000206472697665720D0A0000004572726F722072656164696E6720746865206A6F79737469636B207369676E616C2066726F6D20746865206472697665720D0A0011
:40218000E502000001000000010000000D0400000A00000099030000640000006D020000020000000100020000000100010001000100010001000100010002000200020099
:4021C0000200020002000200020002000200020002000300030003000300030003000300040004000400040004000400050005000500050005000600060006000600070068
:4022000007000700080008000800090009000A000A000A000B000B000C000C000D000D000E000F000F00100011001100120013001400150016001700180019001A001B00C1
:402240001C001D001F0020002100230024002600280029002B002D002F0031003400360038003B003D0040004300460049004C004F00530057005B005F00630067006C00EE
:40228000700075007B00800086008C00920098009F00A600AD00B500BD00C500CE00D700E100EB00F50000010B011701240130013E014C015B016A017A018B019C01AF0151
:4022C000C201D601EA01000217022E02470261027C029802B502D402F402160339035D038303AB03D50300042D045D048E04C204F80430056B05A805E8052B067106BA0675
:4023000006075607A90700085B08B9081C098309EF09600AD50A500BD10B560CE20C740D0D0EAC0E520F0010B510731138120713DF13C014AB15A116A117AD18C419E91AD0
:402340001A1C581DA51E00206B21E52271240E26BD278029562B412D422F5A318933D1353338B03A493D0040D542CB45E2481C4C7A4FFF52AC56825A845EB3621267A26BF0
:4023800066706075927A0080AA85958BC3913798F59EFEA558AD04B508BD66C524CE44D7CCE0C0EA25F5FFFF000000006106000000000000000000000000000000000000AE
:4023C0000000000000000000000000000000000000000000850600000000000000000000000000000000000000000000000000000000000000000000000000000000000052
:40240000020000000000000001000000202400000000000000000000000000000000000000000000A5060000000000000100000000000000010000004C2400000000000038
:4024400000000000000000000000000001000000305100404000F05100401000000001400010001401400006801A0140800100400140000A004C01400002005001402000F6
:40248000001A01406007004880000000FF000101020202020303030303030303040404040404040404040404040404040505050505050505050505050505050505050505CD
:4024C0000505050505050505050505050606060606060606060606060606060606060606060606060606060606060606060606060606060606060606060606060606060668
:4025000006060606060606060606060607070707070707070707070707070707070707070707070707070707070707070707070707070707070707070707070707070707E7
:40254000070707070707070707070707070707070707070707070707070707070707070707070707070707070707070707070707070707070707070707070707070707079B
:4025800007070707070707070707070701000000942500000200000001000000000000000400000000000000FFFFFFFF00000000000000000000000000000000000000000A
:4025C0001027000001000000000000000100000001000000000000000000000001000000010000000100000001000000100000000800000080000000010000000100000003
:40260000020000000400000010000000080000000100000001000000E1040000B504000051010000B9010000911E0000911E0000911E0000911E0000000000000100000013
:40264000020000000000000000000000616C726D5F316D730000000065765F6A6F79737469636B5F6F6E44617461000065765F73706565645F6F6E446174610065765F3170
:402680006D73000074736B5F696F000074736B5F636F6E74726F6C0074736B5F696E69740000000074736B5F6261636B67726F756E64000043000000F8B500BFF8BC08BCA2
:4026C0009E4670474D000000F9090000F8B500BFF8BC08BC9E46704729000000F0260000C880FF1FD8010000D0420000000000000000000000000000000000002424000099
:402700000000000000000000F82300000000000000000000D02300000000000000000000A82300004C26000000000000FFFFFFFFFFFFFFFFFFFFFFFFFFFFFFFFFFFFFFFF62
:40274000010000000200000003000000FFFFFFFF0400000003000000000000000000000001000000010000000100000001000000FFFFFFFFFFFFFFFFFFFFFFFFFFFFFFFF5C
:40278000FFFFFFFFFFFFFFFFFFFFFFFFFFFFFFFFFFFFFFFFFFFFFFFFFFFFFFFFFFFFFFFFFFFFFFFFFFFFFFFFFFFFFFFFFFFFFFFFFFFFFFFFFFFFFFFFFFFFFFFFFFFFFFFF59
:4027C000FFFFFFFFFFFFFFFFFFFFFFFFFFFFFFFFFFFFFFFFFFFFFFFFFFFFFFFFFFFFFFFFFFFFFFFFFFFFFFFFFFFFFFFFFFFFFFFFFFFFFFFFFFFFFFFFFFFFFFFFFFFFFFFF19
:40280000FFFFFFFF03000000030000000300000003000000582600006C2600007C260000842600008C26000098260000A42600005CC5FF1F0000000030A3FF1F30C3FF1FB9
:40284000FFFFFFFF7F800000030000000000E02EC05D00001800000000366E0100000000000000000000000000000000000000000000000000000000000000000000000072
:40288000B42600000000000000000000000000000000000000000000000000000000000000000000000000000000000000000000000000000000000000000000000000003E
:4028C0003882FF1F00000000000000000000000000000000000000000000000000000000000000000000000000000000000000000000000000000000000000000000000000
:402900000000000000000000000000000000000000000000000000000000000000000000000000000000000000000000000000000000000000000000000000000000000097
:402940000000000000000000000000000000000000000000000000000000000000000000000000000000000000000000000000000000000000000000000000000000000057
:402980000000000000000000000000000000000000000000000000000000000000000000000000000000000000000000000000000000000000000000000000000000000017
:4029C00000000000000000000000000000000000000000000000000000000000000000000000000000000000000000000000000000000000000000000000000000000000D7
:020000040003F7
:0200000480007A
:400000000145004004520040015B00400364004002650040010301400605014034060140340701402B08014046090140280A0140410B0140440C01403D0D0140230E0140A0
:400040002E0F0140021501400B160140321701402A180140421901400C1A0140421B01400840014008410140084201400143014002440140034501400A460140044701404A
:400080000448014001490140014C0140064D01400A50014002510140030101021010608064402784870D8A018D0F89388A72E604810487088880E020E402EA080401100115
:4000C00014011A011C01200128013201580459045C115F018601870192029B019C08A60DB008B201B301B402B604BF04C020C106C5D1C702C813C9FFCAFFCBFFCDA0CF044C
:40010000D018D280D405D804D904DA04DB04DC10DF01E040E2C0E440E540E6C0E8C0EAC0ECC0EEC00004050809020A010C400D040E4810201688180419101A811B081D0441
:400140002204284029282A802FA0311032883688370238083B803EA0400448284901500C59015A8871028138828883828C408E8498809D04A708C024C2F9C454CACFCCDE4B
:40018000CE3AD004D204D60BE201E6051F01260135013601580459045C115F01820483018404850889108A108B208D408F8090089180934094019704980299209B109D0480
:4001C000A102A202A601A702A901AA08AF08B21FB3FFB808BB80BE04BF04D804D904DC21DF010024018003400420054408140B820C040F08104011401214151416801B04F2
:400200001D401E021F4020202301240425102704285029542A522D802F40300231083210334434143740386039053A843C403D303F085880598080408104828083058C2096
:400240008D408F049060910592209540978099149A029B409CA0A002A302A508A601B220C0EFC26FC47FCA9FCC7FCE7FE240051009030B040F08110A13041503170419031F
:400280001B0C2201280229102E042F053004311032013402350F39023B203E103F015602573E580459045B0C5C215D105F01D203D302D804D904DB04DC11DD10DF01004052
:4002C00001090460050808A809080BA00D080E0210021204130115411840192D211222202AA02F503008322134843505380839803A103D415B046102680269046A206B40F8
:400300006C046F067110720273017B027C047E108120902091819202944495609A949C0C9D11A008A621B002B308C0EDC2AFC49BCACCCCD7CE9ED602D801DE08E403EA082E
:4003400008010E0114011C01200128012E013001580459045C115F018014862089118A038B0E8C108D4C8F1390099210942C961199119B469C1C9E229F4CA220A308A43021
:40038000A60CA980AD20AF03B020B10FB380B41FB54AB730B980BB22BE01BF04C024C106C6CBC70EC81CC9FFCAFFCBFFCEF0CF44D00CD401D804D904DA04DB04DC22DD228A
:4003C000DF01E6C0EA40EB02012002550310046006080AA20B100C040E02122013011408154119201A401F012140225523402A812B082C042D412E083260340836013B5094
:400400003C404110428048084B105250530858025A485B1066806701830190209101930194049560962097409A019C0C9D11A601C0CFC2ADC4DCCAFDCCCCCE1CD005D20432
:40044000D60F0301060109030D0219032B0431033201350439023F014004474049FF4A074BFF4C404D204EF04F055008580459045A045C115D025F01604061A86240632069
:40048000D804D904DC11DF0100040140030904200501084909200C040D2010041204140916081701182019041B082121284129112A082B802F883080310432103301340582
:4004C000360139203A043B413D413E0841014B01520188808921C057C26FC4D2CAAFCCCFCEDFD001B402EC20580459045C115F01D608D804D904DB04DC11DD90DF010044AF
:40050000045005080720084009100A500C480D040E500F041320284029882C402D802E583008350838543A083B043C503D205880600290409108924098C099089A08A1108B
:40054000AA48AC40AF20B104B220B340C0E5C2FFC402CAFBCC42CE3ED608D808E640EA04EE085401580459045B0C5C115D105F0181DF850C87D38BC38DC3950C99049A020F
:400580009DD39E019F0CA108A541A720A90FAA02ABD0AD82AE01B001B1C0B320B402B510B70FB920BB80BE11D418D804D904DB04DC21DD20DF010004018003400420070202
:4005C00008040A010B840D08101012891302141415401640174019101B0120202241230428212A022B042D802F403028324034143702384839203B013C043D405A025EC0E0
:40060000611063027F028E40902491409381981499809A40A108A280A302A810A980AD40B004B101C0CDC22FC4FFCA9FCCEECE5FD611D80CDE10E640EE8092019602990116
:40064000A001AF03B003B302B701D804D90CDC19DF0100A408800A900B410E400F2010A811401702180C19011A111B041E40204121182201264027122E403108320137105D
:4006800038023994408141144B4052095901699470A872027F0284018508884089148A018C218D40928093019448952096019C219E03A010A312A428A648A704B710C007D3
:4006C000C23DC41FCA10CC23CE0FD00FD208D601DE10E810EC2010101680308039083E80C430CC10CE6050045910811095089810A480D4A0E6208004881094089810A480D8
:40070000AD04E680EA10A4807740DE045C029F40D6011B022608834084029C029F40A702AF02C608C8014401B208D004EE0120808C80A480C840B0409C0112808E80B0015D
:40074000C408E202EC0400070A030C060E06100611011A021B011C061D010003100A00000012008CBC3F4200003F04000001C300E70818703C24C18A00000000FF000000DF
:4007800010000000080000001800000004000000203858061F0198C0000028000000014052040300010000CE30FFFFFF62A0F0410C00000000000213040404042222000170
:4007C00000000000000040020010301000101012000000000000000000000000000000000840400000030300800040808000800000000000000B0B00000000000010100031
:4008000010000000000100000000000000000000000000000000000000000000000000000000000000000000000000000000000000000000000000000000000000000000A7
:400840000000000000000000000000000000000000000000000000000000000000000000000000000000000000000000000000000000000000000000000000000000000078
:400880000000000000000000000000000000000000000000000000000000000000000000000000000000000000000000000000000000000000000000000000000000000038
:4008C00000000000000000000000000000000000000000000000000000000000000000000000000000000000000000000000000000000000000000000000000000000000F8
:4009000000000000000000000000000000000000000000000000000000000000000000000000000000000000000000000000000000000000000000000000000000000000B7
:0200000490006A
:0400000000004005B7
:0200000490105A
:04000000BC90ACAF55
:0200000490303A
:020000005102AB
:0200000490402A
:4000000000000000000000000000000000000000000000000000000000000000000000000000000000000000000000000000000000000000000000000000000000000000C0
:400040000000000000000000000000000000000000000000000000000000000000000000000000000000000000000000000000000000000000000000000000000000000080
:400080000000000000000000000000000000000000000000000000000000000000000000000000000000000000000000000000000000000000000000000000000000000040
:4000C0000000000000000000000000000000000000000000000000000000000000000000000000000000000000000000000000000000000000000000000000000000000000
:0200000490501A
:0C00000000012E16106900012E26616B15
:00000001FF